{
  "description": "Build a block containing one EIP-1559 ETH transfer. Sender 0xfe3b557e (funded with ~12.5 ETH in genesis) sends 1000 wei to 0x627306090a. The transaction is included: gasUsed=21000 (0x5208), nonce=0, maxFeePerGas=0x10 (> genesis baseFee 0x7), chainId=3503995874084926.",
  "request": {
    "jsonrpc": "2.0",
    "method": "testing_buildBlockV1",
    "params": [
      "0xe4e54508f0865fe3ebc1b5ac710c1fd696b2a2ce797d4111120e0378c0b1cd81",
      {
        "timestamp": "0x1",
        "slotNumber": "0x2a",
        "prevRandao": "0x0000000000000000000000000000000000000000000000000000000000000000",
        "suggestedFeeRecipient": "0x0000000000000000000000000000000000000000",
        "withdrawals": [],
        "parentBeaconBlockRoot": "0x0000000000000000000000000000000000000000000000000000000000000000"
      },
      [
        "0x02f86b870c72dd9d5e883e80801082520894627306090abab3a6e1400e9345bc60c78a8bef578203e880c080a087b5ee5be96494e587c6f97c5fdb819c798cf7c5f4fad99ab1c365133c1b2feaa05a1bd572f15f968195d8a7afa535a04897a43f98f005ad581c92503fef4c6b1a"
      ],
      "0x"
    ],
    "id": 7
  },
  "response": {
    "jsonrpc": "2.0",
    "id": 7,
    "result": {
      "executionPayload": {
        "parentHash": "0xe4e54508f0865fe3ebc1b5ac710c1fd696b2a2ce797d4111120e0378c0b1cd81",
        "feeRecipient": "0x0000000000000000000000000000000000000000",
        "stateRoot": "0xb18806f9f68d579996df92eb6e761ed4b216260aa69630bba2ecb0992402ab6c",
        "receiptsRoot": "0x6d3683d8764c1015a7d49cf3e3d4c295074cb7855dddb9324863bf59ffdda8b8",
        "logsBloom": "0x00000000000000000000000000000000000000000000000000000000000000000000000000000000000000000000000000000000000000080000020000000000000000000000000010000008000000000000000000000000000000000000000000000000000000002000000000000000000000000000000000000010000000000000000000000000000000000000000000000000000000000000010000000002000000000000000000000000000000000000000000000000000000000000000000000002000000000208000000000000000000000000000000000000000000400000000000000000000000000000000000000000000000000000000000000000",
        "prevRandao": "0x0000000000000000000000000000000000000000000000000000000000000000",
        "gasLimit": "0x47e7c40",
        "gasUsed": "0x5208",
        "timestamp": "0x1",
        "extraData": "0x",
        "baseFeePerGas": "0x7",
        "excessBlobGas": "0x0",
        "blobGasUsed": "0x0",
        "blockAccessList": "0xf90154da940000000000000000000000000000000000000000c0c0c0c0c0de9400000961ef480eb55e80d19ad83579a64c007002c0c480010203c0c0c0de94000014574a74c805590aff9499fc7a690f008282c0c480010203c0c0c0de940000884d2aa32eaa155f59a2f24efa73d9008282c0c480010203c0c0c0de940000bbddc7ce488642fb579f8b00f3a590007251c0c480010203c0c0c0f840940000f90827f1c53a10cb7a02335b175320002935e6e580e3e280a0e4e54508f0865fe3ebc1b5ac710c1fd696b2a2ce797d4111120e0378c0b1cd81c0c0c0c0e394000f3df6d732807ef1319fb7b8bb8522d0beac02c6c501c3c28001c3822000c0c0c0ec94627306090abab3a6e1400e9345bc60c78a8bef57c0c0d2d1018fc097ce7bc90715b34b9f10000003e8c0c0e994fe3b557e8fb62b89f4916b721be55ceb828dbd73c0c0cccb01890ad78ebc5ac61dbde0c3c20101c0",
        "slotNumber": "0x2a",
        "transactions": [
          "0x02f86b870c72dd9d5e883e80801082520894627306090abab3a6e1400e9345bc60c78a8bef578203e880c080a087b5ee5be96494e587c6f97c5fdb819c798cf7c5f4fad99ab1c365133c1b2feaa05a1bd572f15f968195d8a7afa535a04897a43f98f005ad581c92503fef4c6b1a"
        ],
        "withdrawals": [],
        "blockNumber": "0x1",
        "blockHash": "0xb0263683b9c9d45faea7e28ce412495fdf79ac752632d27b48c22a551ffb74c9"
      },
      "blockValue": "0x0",
      "blobsBundle": {
        "commitments": [],
        "proofs": [],
        "blobs": []
      },
      "shouldOverrideBuilder": false,
      "executionRequests": []
    }
  },
  "statusCode": 200
}
